{
  "_format": "hh-sol-artifact-1",
  "contractName": "TransactionStore",
  "sourceName": "contracts/TransactionStore.sol",
  "abi": [
    {
      "anonymous": false,
      "inputs": [
        {
          "indexed": true,
          "internalType": "string",
          "name": "transactionId",
          "type": "string"
        },
        {
          "indexed": false,
          "internalType": "enum TransactionStore.Status",
          "name": "status",
          "type": "uint8"
        }
      ],
      "name": "TransactionFinalized",
      "type": "event"
    },
    {
      "inputs": [
        {
          "internalType": "string",
          "name": "_id",
          "type": "string"
        },
        {
          "internalType": "string",
          "name": "_sender",
          "type": "string"
        },
        {
          "internalType": "uint256",
          "name": "_amount",
          "type": "uint256"
        }
      ],
      "name": "createTransaction",
      "outputs": [],
      "stateMutability": "nonpayable",
      "type": "function"
    },
    {
      "inputs": [
        {
          "internalType": "string",
          "name": "_id",
          "type": "string"
        },
        {
          "internalType": "bool",
          "name": "_approved",
          "type": "bool"
        }
      ],
      "name": "finalizeTransaction",
      "outputs": [],
      "stateMutability": "nonpayable",
      "type": "function"
    },
    {
      "inputs": [
        {
          "internalType": "string",
          "name": "_id",
          "type": "string"
        }
      ],
      "name": "getTransaction",
      "outputs": [
        {
          "components": [
            {
              "internalType": "string",
              "name": "id",
              "type": "string"
            },
            {
              "internalType": "string",
              "name": "sender",
              "type": "string"
            },
            {
              "internalType": "uint256",
              "name": "amount",
              "type": "uint256"
            },
            {
              "internalType": "enum TransactionStore.Status",
              "name": "status",
              "type": "uint8"
            },
            {
              "internalType": "uint256",
              "name": "timestamp",
              "type": "uint256"
            }
          ],
          "internalType": "struct TransactionStore.Transaction",
          "name": "",
          "type": "tuple"
        }
      ],
      "stateMutability": "view",
      "type": "function"
    },
    {
      "inputs": [
        {
          "internalType": "uint256",
          "name": "",
          "type": "uint256"
        }
      ],
      "name": "transactionIds",
      "outputs": [
        {
          "internalType": "string",
          "name": "",
          "type": "string"
        }
      ],
      "stateMutability": "view",
      "type": "function"
    },
    {
      "inputs": [
        {
          "internalType": "string",
          "name": "",
          "type": "string"
        }
      ],
      "name": "transactions",
      "outputs": [
        {
          "internalType": "string",
          "name": "id",
          "type": "string"
        },
        {
          "internalType": "string",
          "name": "sender",
          "type": "string"
        },
        {
          "internalType": "uint256",
          "name": "amount",
          "type": "uint256"
        },
        {
          "internalType": "enum TransactionStore.Status",
          "name": "status",
          "type": "uint8"
        },
        {
          "internalType": "uint256",
          "name": "timestamp",
          "type": "uint256"
        }
      ],
      "stateMutability": "view",
      "type": "function"
    }
  ],
  "bytecode": "0x608060405234801561001057600080fd5b506112d9806100206000396000f3fe608060405234801561001057600080fd5b50600436106100575760003560e01c8063022236f41461005c5780630de5143414610090578063ac2ccd07146100ac578063bffca24a146100dc578063e36f8dc5146100f8575b600080fd5b610076600480360381019061007191906109b9565b610128565b604051610087959493929190610b11565b60405180910390f35b6100aa60048036038101906100a59190610baa565b610291565b005b6100c660048036038101906100c191906109b9565b61045f565b6040516100d39190610ceb565b60405180910390f35b6100f660048036038101906100f19190610d39565b61060a565b005b610112600480360381019061010d9190610dc4565b610772565b60405161011f9190610df1565b60405180910390f35b60008180516020810182018051848252602083016020850120818352809550505050505060009150905080600001805461016190610e42565b80601f016020809104026020016040519081016040528092919081815260200182805461018d90610e42565b80156101da5780601f106101af576101008083540402835291602001916101da565b820191906000526020600020905b8154815290600101906020018083116101bd57829003601f168201915b5050505050908060010180546101ef90610e42565b80601f016020809104026020016040519081016040528092919081815260200182805461021b90610e42565b80156102685780601f1061023d57610100808354040283529160200191610268565b820191906000526020600020905b81548152906001019060200180831161024b57829003601f168201915b5050505050908060020154908060030160009054906101000a900460ff16908060040154905085565b600080836040516102a29190610eaf565b908152602001604051809103902060040154036102f4576040517f08c379a00000000000000000000000000000000000000000000000000000000081526004016102eb90610f12565b60405180910390fd5b6000600281111561030857610307610a9a565b5b6000836040516103189190610eaf565b908152602001604051809103902060030160009054906101000a900460ff16600281111561034957610348610a9a565b5b14610389576040517f08c379a000000000000000000000000000000000000000000000000000000000815260040161038090610f7e565b60405180910390fd5b80610395576002610398565b60015b6000836040516103a89190610eaf565b908152602001604051809103902060030160006101000a81548160ff021916908360028111156103db576103da610a9a565b5b0217905550816040516103ee9190610eaf565b60405180910390207fe563609eed0d23406a472287d6c53a56a607dd145aec1ee7b1217a771330e1596000846040516104279190610eaf565b908152602001604051809103902060030160009054906101000a900460ff166040516104539190610f9e565b60405180910390a25050565b61046761081e565b6000826040516104779190610eaf565b90815260200160405180910390206040518060a00160405290816000820180546104a090610e42565b80601f01602080910402602001604051908101604052809291908181526020018280546104cc90610e42565b80156105195780601f106104ee57610100808354040283529160200191610519565b820191906000526020600020905b8154815290600101906020018083116104fc57829003601f168201915b5050505050815260200160018201805461053290610e42565b80601f016020809104026020016040519081016040528092919081815260200182805461055e90610e42565b80156105ab5780601f10610580576101008083540402835291602001916105ab565b820191906000526020600020905b81548152906001019060200180831161058e57829003601f168201915b50505050508152602001600282015481526020016003820160009054906101000a900460ff1660028111156105e3576105e2610a9a565b5b60028111156105f5576105f4610a9a565b5b81526020016004820154815250509050919050565b6000808460405161061b9190610eaf565b9081526020016040518091039020600401541461066d576040517f08c379a000000000000000000000000000000000000000000000000000000000815260040161066490611005565b60405180910390fd5b6040518060a001604052808481526020018381526020018281526020016000600281111561069e5761069d610a9a565b5b8152602001428152506000846040516106b79190610eaf565b908152602001604051809103902060008201518160000190816106da91906111d1565b5060208201518160010190816106f091906111d1565b506040820151816002015560608201518160030160006101000a81548160ff0219169083600281111561072657610725610a9a565b5b02179055506080820151816004015590505060018390806001815401808255809150506001900390600052602060002001600090919091909150908161076c91906111d1565b50505050565b6001818154811061078257600080fd5b90600052602060002001600091509050805461079d90610e42565b80601f01602080910402602001604051908101604052809291908181526020018280546107c990610e42565b80156108165780601f106107eb57610100808354040283529160200191610816565b820191906000526020600020905b8154815290600101906020018083116107f957829003601f168201915b505050505081565b6040518060a001604052806060815260200160608152602001600081526020016000600281111561085257610851610a9a565b5b8152602001600081525090565b6000604051905090565b600080fd5b600080fd5b600080fd5b600080fd5b6000601f19601f8301169050919050565b7f4e487b7100000000000000000000000000000000000000000000000000000000600052604160045260246000fd5b6108c68261087d565b810181811067ffffffffffffffff821117156108e5576108e461088e565b5b80604052505050565b60006108f861085f565b905061090482826108bd565b919050565b600067ffffffffffffffff8211156109245761092361088e565b5b61092d8261087d565b9050602081019050919050565b82818337600083830152505050565b600061095c61095784610909565b6108ee565b90508281526020810184848401111561097857610977610878565b5b61098384828561093a565b509392505050565b600082601f8301126109a05761099f610873565b5b81356109b0848260208601610949565b91505092915050565b6000602082840312156109cf576109ce610869565b5b600082013567ffffffffffffffff8111156109ed576109ec61086e565b5b6109f98482850161098b565b91505092915050565b600081519050919050565b600082825260208201905092915050565b60005b83811015610a3c578082015181840152602081019050610a21565b60008484015250505050565b6000610a5382610a02565b610a5d8185610a0d565b9350610a6d818560208601610a1e565b610a768161087d565b840191505092915050565b6000819050919050565b610a9481610a81565b82525050565b7f4e487b7100000000000000000000000000000000000000000000000000000000600052602160045260246000fd5b60038110610ada57610ad9610a9a565b5b50565b6000819050610aeb82610ac9565b919050565b6000610afb82610add565b9050919050565b610b0b81610af0565b82525050565b600060a0820190508181036000830152610b2b8188610a48565b90508181036020830152610b3f8187610a48565b9050610b4e6040830186610a8b565b610b5b6060830185610b02565b610b686080830184610a8b565b9695505050505050565b60008115159050919050565b610b8781610b72565b8114610b9257600080fd5b50565b600081359050610ba481610b7e565b92915050565b60008060408385031215610bc157610bc0610869565b5b600083013567ffffffffffffffff811115610bdf57610bde61086e565b5b610beb8582860161098b565b9250506020610bfc85828601610b95565b9150509250929050565b600082825260208201905092915050565b6000610c2282610a02565b610c2c8185610c06565b9350610c3c818560208601610a1e565b610c458161087d565b840191505092915050565b610c5981610a81565b82525050565b610c6881610af0565b82525050565b600060a0830160008301518482036000860152610c8b8282610c17565b91505060208301518482036020860152610ca58282610c17565b9150506040830151610cba6040860182610c50565b506060830151610ccd6060860182610c5f565b506080830151610ce06080860182610c50565b508091505092915050565b60006020820190508181036000830152610d058184610c6e565b905092915050565b610d1681610a81565b8114610d2157600080fd5b50565b600081359050610d3381610d0d565b92915050565b600080600060608486031215610d5257610d51610869565b5b600084013567ffffffffffffffff811115610d7057610d6f61086e565b5b610d7c8682870161098b565b935050602084013567ffffffffffffffff811115610d9d57610d9c61086e565b5b610da98682870161098b565b9250506040610dba86828701610d24565b9150509250925092565b600060208284031215610dda57610dd9610869565b5b6000610de884828501610d24565b91505092915050565b60006020820190508181036000830152610e0b8184610a48565b905092915050565b7f4e487b7100000000000000000000000000000000000000000000000000000000600052602260045260246000fd5b60006002820490506001821680610e5a57607f821691505b602082108103610e6d57610e6c610e13565b5b50919050565b600081905092915050565b6000610e8982610a02565b610e938185610e73565b9350610ea3818560208601610a1e565b80840191505092915050565b6000610ebb8284610e7e565b915081905092915050565b7f5472616e73616374696f6e206e6f7420666f756e640000000000000000000000600082015250565b6000610efc601583610a0d565b9150610f0782610ec6565b602082019050919050565b60006020820190508181036000830152610f2b81610eef565b9050919050565b7f416c72656164792066696e616c697a6564000000000000000000000000000000600082015250565b6000610f68601183610a0d565b9150610f7382610f32565b602082019050919050565b60006020820190508181036000830152610f9781610f5b565b9050919050565b6000602082019050610fb36000830184610b02565b92915050565b7f5472616e73616374696f6e206578697374730000000000000000000000000000600082015250565b6000610fef601283610a0d565b9150610ffa82610fb9565b602082019050919050565b6000602082019050818103600083015261101e81610fe2565b9050919050565b60008190508160005260206000209050919050565b60006020601f8301049050919050565b600082821b905092915050565b6000600883026110877fffffffffffffffffffffffffffffffffffffffffffffffffffffffffffffffff8261104a565b611091868361104a565b95508019841693508086168417925050509392505050565b6000819050919050565b60006110ce6110c96110c484610a81565b6110a9565b610a81565b9050919050565b6000819050919050565b6110e8836110b3565b6110fc6110f4826110d5565b848454611057565b825550505050565b600090565b611111611104565b61111c8184846110df565b505050565b5b8181101561114057611135600082611109565b600181019050611122565b5050565b601f8211156111855761115681611025565b61115f8461103a565b8101602085101561116e578190505b61118261117a8561103a565b830182611121565b50505b505050565b600082821c905092915050565b60006111a86000198460080261118a565b1980831691505092915050565b60006111c18383611197565b9150826002028217905092915050565b6111da82610a02565b67ffffffffffffffff8111156111f3576111f261088e565b5b6111fd8254610e42565b611208828285611144565b600060209050601f83116001811461123b5760008415611229578287015190505b61123385826111b5565b86555061129b565b601f19841661124986611025565b60005b828110156112715784890151825560018201915060208501945060208101905061124c565b8683101561128e578489015161128a601f891682611197565b8355505b6001600288020188555050505b50505050505056fea2646970667358221220dc4dbdc5a0cacefb329f5246d93eb0d0072a18d6a50f5a7332a1a3936438781664736f6c63430008140033",
  "linkReferences": {},
  "deployedLinkReferences": {}
}