{
  "_format": "hh-sol-artifact-1",
  "contractName": "BankApproval",
  "sourceName": "contracts/BankApproval.sol",
  "abi": [
    {
      "anonymous": false,
      "inputs": [
        {
          "indexed": true,
          "internalType": "string",
          "name": "transactionId",
          "type": "string"
        },
        {
          "indexed": false,
          "internalType": "string",
          "name": "bankId",
          "type": "string"
        }
      ],
      "name": "BankApproved",
      "type": "event"
    },
    {
      "inputs": [
        {
          "internalType": "string",
          "name": "",
          "type": "string"
        },
        {
          "internalType": "uint256",
          "name": "",
          "type": "uint256"
        }
      ],
      "name": "approvals",
      "outputs": [
        {
          "internalType": "string",
          "name": "bankId",
          "type": "string"
        },
        {
          "internalType": "bytes",
          "name": "signature",
          "type": "bytes"
        },
        {
          "internalType": "uint256",
          "name": "timestamp",
          "type": "uint256"
        }
      ],
      "stateMutability": "view",
      "type": "function"
    },
    {
      "inputs": [
        {
          "internalType": "string",
          "name": "_transactionId",
          "type": "string"
        }
      ],
      "name": "getApprovalCount",
      "outputs": [
        {
          "internalType": "uint256",
          "name": "",
          "type": "uint256"
        }
      ],
      "stateMutability": "view",
      "type": "function"
    },
    {
      "inputs": [
        {
          "internalType": "string",
          "name": "",
          "type": "string"
        },
        {
          "internalType": "string",
          "name": "",
          "type": "string"
        }
      ],
      "name": "hasBankApproved",
      "outputs": [
        {
          "internalType": "bool",
          "name": "",
          "type": "bool"
        }
      ],
      "stateMutability": "view",
      "type": "function"
    },
    {
      "inputs": [
        {
          "internalType": "string",
          "name": "_transactionId",
          "type": "string"
        },
        {
          "internalType": "string",
          "name": "_bankId",
          "type": "string"
        },
        {
          "internalType": "bytes",
          "name": "_signature",
          "type": "bytes"
        }
      ],
      "name": "recordApproval",
      "outputs": [],
      "stateMutability": "nonpayable",
      "type": "function"
    }
  ],
  "bytecode": "0x608060405234801561001057600080fd5b50610f47806100206000396000f3fe608060405234801561001057600080fd5b506004361061004c5760003560e01c806348678390146100515780634cb1b9ac146100835780639bd96a441461009f578063b5b53a3e146100cf575b600080fd5b61006b60048036038101906100669190610647565b6100ff565b60405161007a93929190610786565b60405180910390f35b61009d6004803603810190610098919061086c565b61026c565b005b6100b960048036038101906100b49190610913565b610432565b6040516100c691906109a6565b60405180910390f35b6100e960048036038101906100e491906109c1565b61048d565b6040516100f69190610a0a565b60405180910390f35b600082805160208101820180518482526020830160208501208183528095505050505050818154811061013157600080fd5b90600052602060002090600302016000915091505080600001805461015590610a54565b80601f016020809104026020016040519081016040528092919081815260200182805461018190610a54565b80156101ce5780601f106101a3576101008083540402835291602001916101ce565b820191906000526020600020905b8154815290600101906020018083116101b157829003601f168201915b5050505050908060010180546101e390610a54565b80601f016020809104026020016040519081016040528092919081815260200182805461020f90610a54565b801561025c5780601f106102315761010080835404028352916020019161025c565b820191906000526020600020905b81548152906001019060200180831161023f57829003601f168201915b5050505050908060020154905083565b60018360405161027c9190610ac1565b9081526020016040518091039020826040516102989190610ac1565b908152602001604051809103902060009054906101000a900460ff16156102f4576040517f08c379a00000000000000000000000000000000000000000000000000000000081526004016102eb90610b24565b60405180910390fd5b6000836040516103049190610ac1565b90815260200160405180910390206040518060600160405280848152602001838152602001428152509080600181540180825580915050600190039060005260206000209060030201600090919091909150600082015181600001908161036b9190610cf0565b5060208201518160010190816103819190610e1d565b506040820151816002015550506001808460405161039f9190610ac1565b9081526020016040518091039020836040516103bb9190610ac1565b908152602001604051809103902060006101000a81548160ff021916908315150217905550826040516103ee9190610ac1565b60405180910390207f4aa788b5c204084062bdc1cbca3e345559d7348b95a16a8630380acc36474747836040516104259190610eef565b60405180910390a2505050565b600182805160208101820180518482526020830160208501208183528095505050505050818051602081018201805184825260208301602085012081835280955050505050506000915091509054906101000a900460ff1681565b6000808260405161049e9190610ac1565b9081526020016040518091039020805490509050919050565b6000604051905090565b600080fd5b600080fd5b600080fd5b600080fd5b6000601f19601f8301169050919050565b7f4e487b7100000000000000000000000000000000000000000000000000000000600052604160045260246000fd5b61051e826104d5565b810181811067ffffffffffffffff8211171561053d5761053c6104e6565b5b80604052505050565b60006105506104b7565b905061055c8282610515565b919050565b600067ffffffffffffffff82111561057c5761057b6104e6565b5b610585826104d5565b9050602081019050919050565b82818337600083830152505050565b60006105b46105af84610561565b610546565b9050828152602081018484840111156105d0576105cf6104d0565b5b6105db848285610592565b509392505050565b600082601f8301126105f8576105f76104cb565b5b81356106088482602086016105a1565b91505092915050565b6000819050919050565b61062481610611565b811461062f57600080fd5b50565b6000813590506106418161061b565b92915050565b6000806040838503121561065e5761065d6104c1565b5b600083013567ffffffffffffffff81111561067c5761067b6104c6565b5b610688858286016105e3565b925050602061069985828601610632565b9150509250929050565b600081519050919050565b600082825260208201905092915050565b60005b838110156106dd5780820151818401526020810190506106c2565b60008484015250505050565b60006106f4826106a3565b6106fe81856106ae565b935061070e8185602086016106bf565b610717816104d5565b840191505092915050565b600081519050919050565b600082825260208201905092915050565b600061074982610722565b610753818561072d565b93506107638185602086016106bf565b61076c816104d5565b840191505092915050565b61078081610611565b82525050565b600060608201905081810360008301526107a081866106e9565b905081810360208301526107b4818561073e565b90506107c36040830184610777565b949350505050565b600067ffffffffffffffff8211156107e6576107e56104e6565b5b6107ef826104d5565b9050602081019050919050565b600061080f61080a846107cb565b610546565b90508281526020810184848401111561082b5761082a6104d0565b5b610836848285610592565b509392505050565b600082601f830112610853576108526104cb565b5b81356108638482602086016107fc565b91505092915050565b600080600060608486031215610885576108846104c1565b5b600084013567ffffffffffffffff8111156108a3576108a26104c6565b5b6108af868287016105e3565b935050602084013567ffffffffffffffff8111156108d0576108cf6104c6565b5b6108dc868287016105e3565b925050604084013567ffffffffffffffff8111156108fd576108fc6104c6565b5b6109098682870161083e565b9150509250925092565b6000806040838503121561092a576109296104c1565b5b600083013567ffffffffffffffff811115610948576109476104c6565b5b610954858286016105e3565b925050602083013567ffffffffffffffff811115610975576109746104c6565b5b610981858286016105e3565b9150509250929050565b60008115159050919050565b6109a08161098b565b82525050565b60006020820190506109bb6000830184610997565b92915050565b6000602082840312156109d7576109d66104c1565b5b600082013567ffffffffffffffff8111156109f5576109f46104c6565b5b610a01848285016105e3565b91505092915050565b6000602082019050610a1f6000830184610777565b92915050565b7f4e487b7100000000000000000000000000000000000000000000000000000000600052602260045260246000fd5b60006002820490506001821680610a6c57607f821691505b602082108103610a7f57610a7e610a25565b5b50919050565b600081905092915050565b6000610a9b826106a3565b610aa58185610a85565b9350610ab58185602086016106bf565b80840191505092915050565b6000610acd8284610a90565b915081905092915050565b7f42616e6b20616c726561647920617070726f7665640000000000000000000000600082015250565b6000610b0e6015836106ae565b9150610b1982610ad8565b602082019050919050565b60006020820190508181036000830152610b3d81610b01565b9050919050565b60008190508160005260206000209050919050565b60006020601f8301049050919050565b600082821b905092915050565b600060088302610ba67fffffffffffffffffffffffffffffffffffffffffffffffffffffffffffffffff82610b69565b610bb08683610b69565b95508019841693508086168417925050509392505050565b6000819050919050565b6000610bed610be8610be384610611565b610bc8565b610611565b9050919050565b6000819050919050565b610c0783610bd2565b610c1b610c1382610bf4565b848454610b76565b825550505050565b600090565b610c30610c23565b610c3b818484610bfe565b505050565b5b81811015610c5f57610c54600082610c28565b600181019050610c41565b5050565b601f821115610ca457610c7581610b44565b610c7e84610b59565b81016020851015610c8d578190505b610ca1610c9985610b59565b830182610c40565b50505b505050565b600082821c905092915050565b6000610cc760001984600802610ca9565b1980831691505092915050565b6000610ce08383610cb6565b9150826002028217905092915050565b610cf9826106a3565b67ffffffffffffffff811115610d1257610d116104e6565b5b610d1c8254610a54565b610d27828285610c63565b600060209050601f831160018114610d5a5760008415610d48578287015190505b610d528582610cd4565b865550610dba565b601f198416610d6886610b44565b60005b82811015610d9057848901518255600182019150602085019450602081019050610d6b565b86831015610dad5784890151610da9601f891682610cb6565b8355505b6001600288020188555050505b505050505050565b60008190508160005260206000209050919050565b601f821115610e1857610de981610dc2565b610df284610b59565b81016020851015610e01578190505b610e15610e0d85610b59565b830182610c40565b50505b505050565b610e2682610722565b67ffffffffffffffff811115610e3f57610e3e6104e6565b5b610e498254610a54565b610e54828285610dd7565b600060209050601f831160018114610e875760008415610e75578287015190505b610e7f8582610cd4565b865550610ee7565b601f198416610e9586610dc2565b60005b82811015610ebd57848901518255600182019150602085019450602081019050610e98565b86831015610eda5784890151610ed6601f891682610cb6565b8355505b6001600288020188555050505b505050505050565b60006020820190508181036000830152610f0981846106e9565b90509291505056fea2646970667358221220e944185bcadb0947f2d773522f71c517f2837c53e8fec1bee7320276e1bffc8d64736f6c63430008140033",
  "linkReferences": {},
  "deployedLinkReferences": {}
}