{
  "_format": "hh-sol-artifact-1",
  "contractName": "VoteManager",
  "sourceName": "contracts/VoteManager.sol",
  "abi": [
    {
      "inputs": [
        {
          "internalType": "address",
          "name": "_nodeRegistry",
          "type": "address"
        }
      ],
      "stateMutability": "nonpayable",
      "type": "constructor"
    },
    {
      "anonymous": false,
      "inputs": [
        {
          "indexed": true,
          "internalType": "string",
          "name": "transactionId",
          "type": "string"
        },
        {
          "indexed": true,
          "internalType": "address",
          "name": "voter",
          "type": "address"
        },
        {
          "indexed": false,
          "internalType": "bool",
          "name": "decision",
          "type": "bool"
        }
      ],
      "name": "VoteCast",
      "type": "event"
    },
    {
      "inputs": [
        {
          "internalType": "string",
          "name": "_transactionId",
          "type": "string"
        },
        {
          "internalType": "bool",
          "name": "_decision",
          "type": "bool"
        }
      ],
      "name": "castVote",
      "outputs": [],
      "stateMutability": "nonpayable",
      "type": "function"
    },
    {
      "inputs": [
        {
          "internalType": "string",
          "name": "_transactionId",
          "type": "string"
        }
      ],
      "name": "getVoteCount",
      "outputs": [
        {
          "internalType": "uint256",
          "name": "yes",
          "type": "uint256"
        },
        {
          "internalType": "uint256",
          "name": "no",
          "type": "uint256"
        }
      ],
      "stateMutability": "view",
      "type": "function"
    },
    {
      "inputs": [
        {
          "internalType": "string",
          "name": "",
          "type": "string"
        },
        {
          "internalType": "address",
          "name": "",
          "type": "address"
        }
      ],
      "name": "hasVoted",
      "outputs": [
        {
          "internalType": "bool",
          "name": "",
          "type": "bool"
        }
      ],
      "stateMutability": "view",
      "type": "function"
    },
    {
      "inputs": [],
      "name": "nodeRegistry",
      "outputs": [
        {
          "internalType": "contract NodeRegistry",
          "name": "",
          "type": "address"
        }
      ],
      "stateMutability": "view",
      "type": "function"
    },
    {
      "inputs": [
        {
          "internalType": "string",
          "name": "",
          "type": "string"
        },
        {
          "internalType": "uint256",
          "name": "",
          "type": "uint256"
        }
      ],
      "name": "transactionVotes",
      "outputs": [
        {
          "internalType": "address",
          "name": "voter",
          "type": "address"
        },
        {
          "internalType": "bool",
          "name": "decision",
          "type": "bool"
        },
        {
          "internalType": "uint256",
          "name": "timestamp",
          "type": "uint256"
        }
      ],
      "stateMutability": "view",
      "type": "function"
    }
  ],
  "bytecode": "0x608060405234801561001057600080fd5b50604051610f2f380380610f2f833981810160405281019061003291906100db565b806000806101000a81548173ffffffffffffffffffffffffffffffffffffffff021916908373ffffffffffffffffffffffffffffffffffffffff16021790555050610108565b600080fd5b600073ffffffffffffffffffffffffffffffffffffffff82169050919050565b60006100a88261007d565b9050919050565b6100b88161009d565b81146100c357600080fd5b50565b6000815190506100d5816100af565b92915050565b6000602082840312156100f1576100f0610078565b5b60006100ff848285016100c6565b91505092915050565b610e18806101176000396000f3fe608060405234801561001057600080fd5b50600436106100575760003560e01c8063069953a71461005c578063199edd7a1461008d578063799d08b3146100a95780639af06cd9146100db578063d9b5c4a51461010b575b600080fd5b61007660048036038101906100719190610823565b610129565b604051610084929190610885565b60405180910390f35b6100a760048036038101906100a291906108e6565b61028b565b005b6100c360048036038101906100be919061096e565b6105d6565b6040516100d293929190610a1a565b60405180910390f35b6100f560048036038101906100f09190610a7d565b610660565b6040516101029190610ad9565b60405180910390f35b6101136106a5565b6040516101209190610b53565b60405180910390f35b600080600060018460405161013e9190610bdf565b9081526020016040518091039020805480602002602001604051908101604052809291908181526020016000905b8282101561021957838290600052602060002090600202016040518060600160405290816000820160009054906101000a900473ffffffffffffffffffffffffffffffffffffffff1673ffffffffffffffffffffffffffffffffffffffff1673ffffffffffffffffffffffffffffffffffffffff1681526020016000820160149054906101000a900460ff161515151581526020016001820154815250508152602001906001019061016c565b50505050905060005b81518110156102845781818151811061023e5761023d610bf6565b5b6020026020010151602001511561026257838061025a90610c54565b945050610271565b828061026d90610c54565b9350505b808061027c90610c54565b915050610222565b5050915091565b60008054906101000a900473ffffffffffffffffffffffffffffffffffffffff1673ffffffffffffffffffffffffffffffffffffffff16639407af1f336040518263ffffffff1660e01b81526004016102e49190610c9c565b602060405180830381865afa158015610301573d6000803e3d6000fd5b505050506040513d601f19601f820116820180604052508101906103259190610ccc565b610364576040517f08c379a000000000000000000000000000000000000000000000000000000000815260040161035b90610d56565b60405180910390fd5b6002826040516103749190610bdf565b908152602001604051809103902060003373ffffffffffffffffffffffffffffffffffffffff1673ffffffffffffffffffffffffffffffffffffffff16815260200190815260200160002060009054906101000a900460ff161561040d576040517f08c379a000000000000000000000000000000000000000000000000000000000815260040161040490610dc2565b60405180910390fd5b60018260405161041d9190610bdf565b908152602001604051809103902060405180606001604052803373ffffffffffffffffffffffffffffffffffffffff168152602001831515815260200142815250908060018154018082558091505060019003906000526020600020906002020160009091909190915060008201518160000160006101000a81548173ffffffffffffffffffffffffffffffffffffffff021916908373ffffffffffffffffffffffffffffffffffffffff16021790555060208201518160000160146101000a81548160ff021916908315150217905550604082015181600101555050600160028360405161050c9190610bdf565b908152602001604051809103902060003373ffffffffffffffffffffffffffffffffffffffff1673ffffffffffffffffffffffffffffffffffffffff16815260200190815260200160002060006101000a81548160ff0219169083151502179055503373ffffffffffffffffffffffffffffffffffffffff16826040516105939190610bdf565b60405180910390207ff809f16c0f54f478c88bf1d6567797557429f5b574c6d1781835148876c17acb836040516105ca9190610ad9565b60405180910390a35050565b600182805160208101820180518482526020830160208501208183528095505050505050818154811061060857600080fd5b9060005260206000209060020201600091509150508060000160009054906101000a900473ffffffffffffffffffffffffffffffffffffffff16908060000160149054906101000a900460ff16908060010154905083565b6002828051602081018201805184825260208301602085012081835280955050505050506020528060005260406000206000915091509054906101000a900460ff1681565b60008054906101000a900473ffffffffffffffffffffffffffffffffffffffff1681565b6000604051905090565b600080fd5b600080fd5b600080fd5b600080fd5b6000601f19601f8301169050919050565b7f4e487b7100000000000000000000000000000000000000000000000000000000600052604160045260246000fd5b610730826106e7565b810181811067ffffffffffffffff8211171561074f5761074e6106f8565b5b80604052505050565b60006107626106c9565b905061076e8282610727565b919050565b600067ffffffffffffffff82111561078e5761078d6106f8565b5b610797826106e7565b9050602081019050919050565b82818337600083830152505050565b60006107c66107c184610773565b610758565b9050828152602081018484840111156107e2576107e16106e2565b5b6107ed8482856107a4565b509392505050565b600082601f83011261080a576108096106dd565b5b813561081a8482602086016107b3565b91505092915050565b600060208284031215610839576108386106d3565b5b600082013567ffffffffffffffff811115610857576108566106d8565b5b610863848285016107f5565b91505092915050565b6000819050919050565b61087f8161086c565b82525050565b600060408201905061089a6000830185610876565b6108a76020830184610876565b9392505050565b60008115159050919050565b6108c3816108ae565b81146108ce57600080fd5b50565b6000813590506108e0816108ba565b92915050565b600080604083850312156108fd576108fc6106d3565b5b600083013567ffffffffffffffff81111561091b5761091a6106d8565b5b610927858286016107f5565b9250506020610938858286016108d1565b9150509250929050565b61094b8161086c565b811461095657600080fd5b50565b60008135905061096881610942565b92915050565b60008060408385031215610985576109846106d3565b5b600083013567ffffffffffffffff8111156109a3576109a26106d8565b5b6109af858286016107f5565b92505060206109c085828601610959565b9150509250929050565b600073ffffffffffffffffffffffffffffffffffffffff82169050919050565b60006109f5826109ca565b9050919050565b610a05816109ea565b82525050565b610a14816108ae565b82525050565b6000606082019050610a2f60008301866109fc565b610a3c6020830185610a0b565b610a496040830184610876565b949350505050565b610a5a816109ea565b8114610a6557600080fd5b50565b600081359050610a7781610a51565b92915050565b60008060408385031215610a9457610a936106d3565b5b600083013567ffffffffffffffff811115610ab257610ab16106d8565b5b610abe858286016107f5565b9250506020610acf85828601610a68565b9150509250929050565b6000602082019050610aee6000830184610a0b565b92915050565b6000819050919050565b6000610b19610b14610b0f846109ca565b610af4565b6109ca565b9050919050565b6000610b2b82610afe565b9050919050565b6000610b3d82610b20565b9050919050565b610b4d81610b32565b82525050565b6000602082019050610b686000830184610b44565b92915050565b600081519050919050565b600081905092915050565b60005b83811015610ba2578082015181840152602081019050610b87565b60008484015250505050565b6000610bb982610b6e565b610bc38185610b79565b9350610bd3818560208601610b84565b80840191505092915050565b6000610beb8284610bae565b915081905092915050565b7f4e487b7100000000000000000000000000000000000000000000000000000000600052603260045260246000fd5b7f4e487b7100000000000000000000000000000000000000000000000000000000600052601160045260246000fd5b6000610c5f8261086c565b91507fffffffffffffffffffffffffffffffffffffffffffffffffffffffffffffffff8203610c9157610c90610c25565b5b600182019050919050565b6000602082019050610cb160008301846109fc565b92915050565b600081519050610cc6816108ba565b92915050565b600060208284031215610ce257610ce16106d3565b5b6000610cf084828501610cb7565b91505092915050565b600082825260208201905092915050565b7f4e6f7420616e20616374697665206e6f64650000000000000000000000000000600082015250565b6000610d40601283610cf9565b9150610d4b82610d0a565b602082019050919050565b60006020820190508181036000830152610d6f81610d33565b9050919050565b7f416c726561647920766f74656400000000000000000000000000000000000000600082015250565b6000610dac600d83610cf9565b9150610db782610d76565b602082019050919050565b60006020820190508181036000830152610ddb81610d9f565b905091905056fea2646970667358221220831f7f622ad7c3a4a4af4ba2191c9b1f6bba9e34891f68688cc0523e856eeaa464736f6c63430008140033",
  "linkReferences": {},
  "deployedLinkReferences": {}
}