{
  "_format": "hh-sol-artifact-1",
  "contractName": "NodeRegistry",
  "sourceName": "contracts/NodeRegistry.sol",
  "abi": [
    {
      "inputs": [],
      "stateMutability": "nonpayable",
      "type": "constructor"
    },
    {
      "anonymous": false,
      "inputs": [
        {
          "indexed": true,
          "internalType": "address",
          "name": "nodeAddress",
          "type": "address"
        },
        {
          "indexed": false,
          "internalType": "string",
          "name": "name",
          "type": "string"
        }
      ],
      "name": "NodeRegistered",
      "type": "event"
    },
    {
      "anonymous": false,
      "inputs": [
        {
          "indexed": true,
          "internalType": "address",
          "name": "nodeAddress",
          "type": "address"
        },
        {
          "indexed": false,
          "internalType": "bool",
          "name": "isActive",
          "type": "bool"
        }
      ],
      "name": "NodeStatusChanged",
      "type": "event"
    },
    {
      "inputs": [],
      "name": "admin",
      "outputs": [
        {
          "internalType": "address",
          "name": "",
          "type": "address"
        }
      ],
      "stateMutability": "view",
      "type": "function"
    },
    {
      "inputs": [],
      "name": "getActiveNodeCount",
      "outputs": [
        {
          "internalType": "uint256",
          "name": "",
          "type": "uint256"
        }
      ],
      "stateMutability": "view",
      "type": "function"
    },
    {
      "inputs": [
        {
          "internalType": "address",
          "name": "_node",
          "type": "address"
        }
      ],
      "name": "isNodeActive",
      "outputs": [
        {
          "internalType": "bool",
          "name": "",
          "type": "bool"
        }
      ],
      "stateMutability": "view",
      "type": "function"
    },
    {
      "inputs": [
        {
          "internalType": "uint256",
          "name": "",
          "type": "uint256"
        }
      ],
      "name": "nodeAddresses",
      "outputs": [
        {
          "internalType": "address",
          "name": "",
          "type": "address"
        }
      ],
      "stateMutability": "view",
      "type": "function"
    },
    {
      "inputs": [
        {
          "internalType": "address",
          "name": "",
          "type": "address"
        }
      ],
      "name": "nodes",
      "outputs": [
        {
          "internalType": "address",
          "name": "walletAddress",
          "type": "address"
        },
        {
          "internalType": "string",
          "name": "url",
          "type": "string"
        },
        {
          "internalType": "bool",
          "name": "isActive",
          "type": "bool"
        },
        {
          "internalType": "string",
          "name": "name",
          "type": "string"
        }
      ],
      "stateMutability": "view",
      "type": "function"
    },
    {
      "inputs": [
        {
          "internalType": "address",
          "name": "_nodeAddress",
          "type": "address"
        },
        {
          "internalType": "string",
          "name": "_name",
          "type": "string"
        },
        {
          "internalType": "string",
          "name": "_url",
          "type": "string"
        }
      ],
      "name": "registerNode",
      "outputs": [],
      "stateMutability": "nonpayable",
      "type": "function"
    },
    {
      "inputs": [
        {
          "internalType": "address",
          "name": "_nodeAddress",
          "type": "address"
        },
        {
          "internalType": "bool",
          "name": "_isActive",
          "type": "bool"
        }
      ],
      "name": "setNodeStatus",
      "outputs": [],
      "stateMutability": "nonpayable",
      "type": "function"
    }
  ],
  "bytecode": "0x608060405234801561001057600080fd5b5033600260006101000a81548173ffffffffffffffffffffffffffffffffffffffff021916908373ffffffffffffffffffffffffffffffffffffffff160217905550611370806100616000396000f3fe608060405234801561001057600080fd5b506004361061007d5760003560e01c8063bc162d7c1161005b578063bc162d7c14610101578063c4d770901461011d578063c5ea2b871461014d578063f851a4401461016b5761007d565b8063189a5a171461008257806329589340146100b55780639407af1f146100d1575b600080fd5b61009c60048036038101906100979190610a27565b610189565b6040516100ac9493929190610b0e565b60405180910390f35b6100cf60048036038101906100ca9190610b8d565b6102f6565b005b6100eb60048036038101906100e69190610a27565b610501565b6040516100f89190610bcd565b60405180910390f35b61011b60048036038101906101169190610d1d565b610559565b005b61013760048036038101906101329190610dde565b61087d565b6040516101449190610e0b565b60405180910390f35b6101556108bc565b6040516101629190610e35565b60405180910390f35b61017361098f565b6040516101809190610e0b565b60405180910390f35b60006020528060005260406000206000915090508060000160009054906101000a900473ffffffffffffffffffffffffffffffffffffffff16908060010180546101d290610e7f565b80601f01602080910402602001604051908101604052809291908181526020018280546101fe90610e7f565b801561024b5780601f106102205761010080835404028352916020019161024b565b820191906000526020600020905b81548152906001019060200180831161022e57829003601f168201915b5050505050908060020160009054906101000a900460ff169080600301805461027390610e7f565b80601f016020809104026020016040519081016040528092919081815260200182805461029f90610e7f565b80156102ec5780601f106102c1576101008083540402835291602001916102ec565b820191906000526020600020905b8154815290600101906020018083116102cf57829003601f168201915b5050505050905084565b600260009054906101000a900473ffffffffffffffffffffffffffffffffffffffff1673ffffffffffffffffffffffffffffffffffffffff163373ffffffffffffffffffffffffffffffffffffffff1614610386576040517f08c379a000000000000000000000000000000000000000000000000000000000815260040161037d90610efc565b60405180910390fd5b600073ffffffffffffffffffffffffffffffffffffffff166000808473ffffffffffffffffffffffffffffffffffffffff1673ffffffffffffffffffffffffffffffffffffffff16815260200190815260200160002060000160009054906101000a900473ffffffffffffffffffffffffffffffffffffffff1673ffffffffffffffffffffffffffffffffffffffff1603610456576040517f08c379a000000000000000000000000000000000000000000000000000000000815260040161044d90610f68565b60405180910390fd5b806000808473ffffffffffffffffffffffffffffffffffffffff1673ffffffffffffffffffffffffffffffffffffffff16815260200190815260200160002060020160006101000a81548160ff0219169083151502179055508173ffffffffffffffffffffffffffffffffffffffff167f215763b2b1bc936f6893f55521c7b2150de788f51fc12fc3483d5a871bbceb06826040516104f59190610bcd565b60405180910390a25050565b60008060008373ffffffffffffffffffffffffffffffffffffffff1673ffffffffffffffffffffffffffffffffffffffff16815260200190815260200160002060020160009054906101000a900460ff169050919050565b600260009054906101000a900473ffffffffffffffffffffffffffffffffffffffff1673ffffffffffffffffffffffffffffffffffffffff163373ffffffffffffffffffffffffffffffffffffffff16146105e9576040517f08c379a00000000000000000000000000000000000000000000000000000000081526004016105e090610efc565b60405180910390fd5b600073ffffffffffffffffffffffffffffffffffffffff166000808573ffffffffffffffffffffffffffffffffffffffff1673ffffffffffffffffffffffffffffffffffffffff16815260200190815260200160002060000160009054906101000a900473ffffffffffffffffffffffffffffffffffffffff1673ffffffffffffffffffffffffffffffffffffffff16146106b9576040517f08c379a00000000000000000000000000000000000000000000000000000000081526004016106b090610fd4565b60405180910390fd5b60405180608001604052808473ffffffffffffffffffffffffffffffffffffffff168152602001828152602001600115158152602001838152506000808573ffffffffffffffffffffffffffffffffffffffff1673ffffffffffffffffffffffffffffffffffffffff16815260200190815260200160002060008201518160000160006101000a81548173ffffffffffffffffffffffffffffffffffffffff021916908373ffffffffffffffffffffffffffffffffffffffff160217905550602082015181600101908161078d91906111a0565b5060408201518160020160006101000a81548160ff02191690831515021790555060608201518160030190816107c391906111a0565b509050506001839080600181540180825580915050600190039060005260206000200160009091909190916101000a81548173ffffffffffffffffffffffffffffffffffffffff021916908373ffffffffffffffffffffffffffffffffffffffff1602179055508273ffffffffffffffffffffffffffffffffffffffff167f27dcab8cdfa14145566e2b9d04fea5a4e8ea320a3f04488a1de4d431ed1080ab836040516108709190611272565b60405180910390a2505050565b6001818154811061088d57600080fd5b906000526020600020016000915054906101000a900473ffffffffffffffffffffffffffffffffffffffff1681565b6000806000905060005b60018054905081101561098757600080600183815481106108ea576108e9611294565b5b9060005260206000200160009054906101000a900473ffffffffffffffffffffffffffffffffffffffff1673ffffffffffffffffffffffffffffffffffffffff1673ffffffffffffffffffffffffffffffffffffffff16815260200190815260200160002060020160009054906101000a900460ff1615610974578180610970906112f2565b9250505b808061097f906112f2565b9150506108c6565b508091505090565b600260009054906101000a900473ffffffffffffffffffffffffffffffffffffffff1681565b6000604051905090565b600080fd5b600080fd5b600073ffffffffffffffffffffffffffffffffffffffff82169050919050565b60006109f4826109c9565b9050919050565b610a04816109e9565b8114610a0f57600080fd5b50565b600081359050610a21816109fb565b92915050565b600060208284031215610a3d57610a3c6109bf565b5b6000610a4b84828501610a12565b91505092915050565b610a5d816109e9565b82525050565b600081519050919050565b600082825260208201905092915050565b60005b83811015610a9d578082015181840152602081019050610a82565b60008484015250505050565b6000601f19601f8301169050919050565b6000610ac582610a63565b610acf8185610a6e565b9350610adf818560208601610a7f565b610ae881610aa9565b840191505092915050565b60008115159050919050565b610b0881610af3565b82525050565b6000608082019050610b236000830187610a54565b8181036020830152610b358186610aba565b9050610b446040830185610aff565b8181036060830152610b568184610aba565b905095945050505050565b610b6a81610af3565b8114610b7557600080fd5b50565b600081359050610b8781610b61565b92915050565b60008060408385031215610ba457610ba36109bf565b5b6000610bb285828601610a12565b9250506020610bc385828601610b78565b9150509250929050565b6000602082019050610be26000830184610aff565b92915050565b600080fd5b600080fd5b7f4e487b7100000000000000000000000000000000000000000000000000000000600052604160045260246000fd5b610c2a82610aa9565b810181811067ffffffffffffffff82111715610c4957610c48610bf2565b5b80604052505050565b6000610c5c6109b5565b9050610c688282610c21565b919050565b600067ffffffffffffffff821115610c8857610c87610bf2565b5b610c9182610aa9565b9050602081019050919050565b82818337600083830152505050565b6000610cc0610cbb84610c6d565b610c52565b905082815260208101848484011115610cdc57610cdb610bed565b5b610ce7848285610c9e565b509392505050565b600082601f830112610d0457610d03610be8565b5b8135610d14848260208601610cad565b91505092915050565b600080600060608486031215610d3657610d356109bf565b5b6000610d4486828701610a12565b935050602084013567ffffffffffffffff811115610d6557610d646109c4565b5b610d7186828701610cef565b925050604084013567ffffffffffffffff811115610d9257610d916109c4565b5b610d9e86828701610cef565b9150509250925092565b6000819050919050565b610dbb81610da8565b8114610dc657600080fd5b50565b600081359050610dd881610db2565b92915050565b600060208284031215610df457610df36109bf565b5b6000610e0284828501610dc9565b91505092915050565b6000602082019050610e206000830184610a54565b92915050565b610e2f81610da8565b82525050565b6000602082019050610e4a6000830184610e26565b92915050565b7f4e487b7100000000000000000000000000000000000000000000000000000000600052602260045260246000fd5b60006002820490506001821680610e9757607f821691505b602082108103610eaa57610ea9610e50565b5b50919050565b7f4f6e6c792061646d696e00000000000000000000000000000000000000000000600082015250565b6000610ee6600a83610a6e565b9150610ef182610eb0565b602082019050919050565b60006020820190508181036000830152610f1581610ed9565b9050919050565b7f4e6f6465206e6f7420666f756e64000000000000000000000000000000000000600082015250565b6000610f52600e83610a6e565b9150610f5d82610f1c565b602082019050919050565b60006020820190508181036000830152610f8181610f45565b9050919050565b7f4e6f646520616c72656164792072656769737465726564000000000000000000600082015250565b6000610fbe601783610a6e565b9150610fc982610f88565b602082019050919050565b60006020820190508181036000830152610fed81610fb1565b9050919050565b60008190508160005260206000209050919050565b60006020601f8301049050919050565b600082821b905092915050565b6000600883026110567fffffffffffffffffffffffffffffffffffffffffffffffffffffffffffffffff82611019565b6110608683611019565b95508019841693508086168417925050509392505050565b6000819050919050565b600061109d61109861109384610da8565b611078565b610da8565b9050919050565b6000819050919050565b6110b783611082565b6110cb6110c3826110a4565b848454611026565b825550505050565b600090565b6110e06110d3565b6110eb8184846110ae565b505050565b5b8181101561110f576111046000826110d8565b6001810190506110f1565b5050565b601f8211156111545761112581610ff4565b61112e84611009565b8101602085101561113d578190505b61115161114985611009565b8301826110f0565b50505b505050565b600082821c905092915050565b600061117760001984600802611159565b1980831691505092915050565b60006111908383611166565b9150826002028217905092915050565b6111a982610a63565b67ffffffffffffffff8111156111c2576111c1610bf2565b5b6111cc8254610e7f565b6111d7828285611113565b600060209050601f83116001811461120a57600084156111f8578287015190505b6112028582611184565b86555061126a565b601f19841661121886610ff4565b60005b828110156112405784890151825560018201915060208501945060208101905061121b565b8683101561125d5784890151611259601f891682611166565b8355505b6001600288020188555050505b505050505050565b6000602082019050818103600083015261128c8184610aba565b905092915050565b7f4e487b7100000000000000000000000000000000000000000000000000000000600052603260045260246000fd5b7f4e487b7100000000000000000000000000000000000000000000000000000000600052601160045260246000fd5b60006112fd82610da8565b91507fffffffffffffffffffffffffffffffffffffffffffffffffffffffffffffffff820361132f5761132e6112c3565b5b60018201905091905056fea26469706673582212207d954be5249bc7297f3b0a09f6276f8da67a1629a12c25a40339d24637d098ed64736f6c63430008140033",
  "linkReferences": {},
  "deployedLinkReferences": {}
}